:100000000C942A000C9442010C94CF010C943C00F7
:100010000C943C000C943C000C943C000C943C0070
:100020000C943C000C943C000C943C000C94DA01C1
:100030000C943C000C943C000C943C000C943C0050
:100040000C943C000C943C000C943C000C943C0040
:100050000C943C0011241FBECFE5D8E0DEBFCDBF1D
:1000600010E0A0E6B0E001C01D92AD36B107E1F7A7
:100070000E9421020C94AF020C9400008430C1F164
:10008000853050F4813001F18130B0F0823011F1CF
:10009000833009F054C025C08730D9F1883030F45E
:1000A000853061F1863009F04AC030C08830C9F12E
:1000B000893009F044C03BC0C698C09AC19AC29A20
:1000C000C39AC49AC59A0895C098C498C598C6980A
:1000D000C39824C0C298C598C09AC19AC39AC49ABA
:1000E0002CC0C498C598C09AC19AC29AC39A25C018
:1000F000C098C398C498C59AC69A10C0C198C498AD
:10010000C09AC59AC69AC29AC39A0895C198C09ACD
:100110000AC0C598C698C498C398C09AC19AC29A92
:100120000895C09AC19AC29AC39AC49A05C0C49845
:10013000C09AC19AC29AC39AC59AC69A0895C49A97
:10014000C09AC19AC29AC39AC59AC69AC79A089584
:1001500080E024C0AE989B9902C081E006C09A99C5
:1001600002C082E002C0999B83E0AE9AAD989B9951
:1001700002C084E006C09A9902C085E002C0999B43
:1001800086E0AD9AAC989B9902C087E006C09A9928
:1001900002C088E002C0999B89E0AC9A8823D1F222
:1001A000809362000895909A80E49CE90197F1F7AA
:1001B000809169006AE00E94A3020E943E0090982C
:1001C00080EA9FE00197F1F70895919A80E49CE915
:1001D0000197F1F7809169006AE00E94A302892FDC
:1001E0000E943E00919880EA9FE00197F1F7089500
:1001F000AF9A80E49CE90197F1F780916A006AE088
:100200000E94A3020E943E00AF9880EA9FE00197FF
:10021000F1F70895DF9A80E49CE90197F1F7809166
:100220006A006AE00E94A302892F0E943E00DF98C4
:1002300080EA9FE00197F1F70895949A80E49CE9A1
:100240000197F1F780916B006AE00E94A302892F69
:100250000E943E00949880EA9FE00197F1F708958C
:10026000959A80E49CE90197F1F780916B006AE030
:100270000E94A3020E943E00959880EA9FE00197A9
:10028000F1F708951F920F920FB60F9211242F933A
:100290003F934F935F936F937F938F939F93AF930E
:1002A000BF93EF93FF93809163008F5F8093630010
:1002B000873079F4809166008093690080916700AF
:1002C00080936A008091680080936B0010926300B5
:1002D000F894979A809163000E943E008091630099
:1002E000813091F18230B9F40E94A800209164001D
:1002F0009AE0299F9001112420936400820F80933B
:10030000650090916C00981718F49093660035C0C2
:100310008093660032C08330B9F0843099F40E9433
:10032000A800209164009AE0299F90011124209355
:100330006400820F809365008D3308F08CE3809316
:1003400067001BC0853029F40E94A80080936400D8
:1003500014C0863091F40E94A800209164009AE0B5
:10036000299F9001112420936400820F80936500DF
:100370008D3308F08CE3809368009798FF91EF919C
:10038000BF91AF919F918F917F916F915F914F91AD
:100390003F912F910F900FBE0F901F9018951F92B5
:1003A0000F920FB60F921124979A0F900FBE0F90D5
:1003B0001F9018951F920F920FB60F9211242F9332
:1003C0003F938F939F9382E882BF809161008F5FFC
:1003D00080936100809161008E3750F180916B00B5
:1003E0008F5F80936B008C3338F010926B0080919C
:1003F0006A008F5F80936A0080916A008C3338F0C6
:1004000010926A00809169008F5F8093690020914B
:100410006C0030E08091690090E08217930734F01F
:100420001092690010926A0010926B0010926100A5
:100430009F918F913F912F910F900FBE0F901F9022
:100440001895FF920F931F9310926B0010926A0001
:1004500086E18093690088E180936C008E9A87B36F
:100460008FEF87BB889A899AA79AD79A8C9A8D9A88
:100470008E9AC098C198C298C398C498C598C698D7
:1004800090989198AF98DF989498959883B78560E5
:1004900083BF89B7816089BF82E882BF789487E88B
:1004A00086B980E487B9A198A298A398A49AA59A3E
:1004B000A69AA99AAA9AAB9AAC9AAD9AAE9A85B71F
:1004C0008F6085BF8BB7806C8BBF8A98A098A89AE5
:1004D0008F9A8CE0F82E01E018E10E9430010E9412
:1004E0001D010E940A010E94F8000E94E5000E947E
:1004F000D30087B1837E87B987B1836087B9369A85
:100500003699FECF84B195B1805092407CF08091B5
:100510006000813039F480916900845F80936900C4
:100520001092600010936C00969AD7CF809169006A
:100530008D3028F08C508093690000936000F09219
:100540006C009698CACF991B79E004C0991F961742
:1005500008F0961B881F7A95C9F780950895F8943E
:02056000FFCFCB
:00000001FF
